:100DEE004C000903E80384032002BC025801F45EA0
:100DFE0001B70000077406A505EB059904FC047005
:100E0E0003F403BC035402F702CC027E023801FA4B
:100E1E0060CC00EB0A010A010A010A010C010C0365
:100E2E00090109010A010901080108010801080167
:100E3E0008010A020A010A010B020A030001080155
:100E4E000801090108010902000108010802060152
:100E5E00060105030001090109010A010B010B023C
:100E6E000001090108010A010900090200010A0135
:100E7E000A010A010A010C010C0300040A010A010D
:100E8E000C010C020A010006080108010801080104
:100E9E0008010A020A0100010A010A010A020A01F6
:100EAE000A010B010A0400020801080109010801E8
:100EBE0008020601080108020601050300020901E5
:100ECE0009010A010B010B0200010A0109010801C7
:100EDE000A010901000000000000000000000000EF
:100EEE005101EC3F065B4F666D7D077F6F777C3956
:100EFE005E7971004800E100010203040506074215
:100F0E0000E900004201DE00004201E4000342015C
:100F1E00E200014201E800004201D7000141000851
:010F2E0000C2
:10203000121EFA121FE8121FA81200001220C0126E
:042040001EBC80FB47
:10179F0012093C900201E07002A3E0600812003EC3
:1017AF0012161980EE9001FDE07002A3E0606FE465
:1017BF009001DDF09001DDE0FFC39001E5E09F7443
:1017CF0080F89001E4E064809840539001DDE025BB
:1017DF00E02417F582E43400F583E0FCA3E0FDEF8D
:1017EF0025E02405F582E43402F583ECF0A3EDF057
:1017FF009001DDE0FF25E0247BF582E43400F583E2
:10180F00E0FCA3E0FDEF25E02469F582E43402F566
:10181F0083ECF0A3EDF09001DDE004F0809612135D
:04182F00060217A2F4
:03002B0002003799
:0400370053BCEF3295
:03001B000220CBF5
:0320CB00B2B4327A
:03000B000205F3F8
:1005F300C0E0C0F0C083C082C0D075D000C000C0CE
:1006030001C002C003C004C005C006C007758CFC4E
:10061300758A189001E0E0FEA3E0FF9001DBE0B5EE
:10062300060BA3E0B507061219DD121C4590020163
:10063300E07002A3E070419000DFE07002A3E0608D
:100643000312003E9001DBE0FEA3E0FFD394B8EE7B
:10065300940B40079000DFE4F0A3F09000DFE0701C
:1006630002A3E07013C3EF9432EE9400400A9001AA
:10067300DBE4F0A3F0121F56900201E07002A3E046
:1006830070030209139001DEE07002A3E0602C9076
:100693000016E004F07006900015E004F0D390001B
:1006A30016E094B4900015E09400400F9001DEE44E
:1006B300F0A3F0900015F0A3F0C28E9001FFE0705C
:1006C30002A3E0602A900204E004F07006900203A3
:1006D300E004F0D3900204E0942C900203E0940130
:1006E300400D9001FFE4F0A3F0900203F0A3F0901B
:1006F30001DBE0FAA3E0FB7C007D32FFAE02120CCB
:1007030024ED4C60030207C49001FFE07002A3E0F4
:1007130060030207C49001E2E0FEA3E0FF64024E1F
:10072300600D20B20A9001E2E4F0A37403800E206E
:10073300B316EF4E60129001E2E4F0A304F09001CF
:10074300FFE4F0A304F080799001D974FFF0A3F0E3
:10075300E5BD5403FFADBEED9001D9CFF0A3EFF09B
:100763009001D9E0FEA3E07807CEA2E713CE13D819
:10077300F8FF9001D9EEF0A3EFF064034E701890E8
:1007830001E2E07004A3E06401600C9001E2E4F094
:10079300A3F09001FF80239001D9E07002A3E070E1
:1007A3001D9001E2E07004A3E0640360119001E294
:1007B300E4F0A37402F09001FFE4F0A304F043BC5F
:1007C300089001E0E0FEA3E06B7002EA6E600302B2
:0207D300091308
:1007D500F522C39001E5E095227480F89001E4E0EC
:1007E500648098404CE52225E02405F582E4340236
:1007F500F583E0FEA3E0FFE52225E02417F582E47A
:100805003400F583EEF0A3EFF0E52225E02469F549
:1008150082E43402F583E0FEA3E0FFE52225E0242F
:100825007BF582E43400F583EEF0A3EFF00522803A
:10083500A112117F9001E4A3E0F522E522D39400F3
:10084500404CE52225E02403F582E43402F583E0FB
:10085500FEA3E0FFE52225E02405F582E43402F558
:1008650083EEF0A3EFF0E52225E02467F582E4347A
:1008750002F583E0FEA3E0FFE52225E02469F58289
:10088500E43402F583EEF0A3EFF0152280AD90017C
:10089500E2E0FEA3E0FF64034E7010900206E00460
:1008A500F0703E900205E004F08036EF64024E7071
:1008B5000C900206E024FFF09002058020EF640111
:1008C5004E701090026AE004F07016900269E00420
:1008D500F0800E90026AE024FFF0900269E034FF98
:1008E500F09001D6E025E0FF9001D5E033FE7409D4
:1008F5002FF58274003EF583E0FFA3E09001E0CF81
:0E090500F0A3EFF0121BD09001DBE4F0A3F0A2
:100913009001DCE004F070069001DBE004F0D00706
:10092300D006D005D004D003D002D001D000D0D05F
:09093300D082D083D0F0D0E03274
:0620AE0012203002179F12
:101A5D00E49001DDF09001DDE0FFC39431502AEFF9
:101A6D0025E02469F582E43402F58374FFF0A3F0D8
:101A7D00EF25E02405F582E43402F58374FFF0A32D
:101A8D00F09001DDE004F080CC900205E4F0A37449
:101A9D0003F0A3E4F0A37402F0A3E4F0A304F0E4D4
:101AAD00A3F0A3F090026FF0A3F090026DF0A3F0FD
:101ABD0090026BF0A3F0900269F0A3F09001E4F0B6
:0E1ACD00A37403F09001E2E4F0A37403F0228E
:10201B00758901758CFC758A18D28CD2A9E4900154
:05202B00DBF0A3F02230
:0520C600D2ABD28E2216
:10204400759A5075D6FE75D7E043AF01438E10D212
:02205400AC22BC
:0C000E00759D8075BC87439720D2AD2201
:101C45009001DD7401F09001DDE0FFFDD39001E529
:101C5500E09D7480F89001E4E0648098404DEF25A4
:101C6500E02405F582E43402F583E0FEA3E0FF906D
:101C75000205E0B5062DA3E0B507289001DDE025B6
:101C8500E02469F582E43402F583E0FEA3E0FF90E9
:101C95000269E0B5060DA3E0B50708E4900201F07E
:0C1CA500A3F0229001DDE004F0809B22FF
:101CB100900008E0F4FF30E008E49001D5F0A3F0D3
:101CC10022EF30E1099001D5E4F0A304F022EF30D6
:101CD100E20A9001D5E4F0A37402F022EF30E30AA6
:101CE1009001D5E4F0A37403F022EF30E40A9001EF
:101CF100D5E4F0A37404F022EF30E5099001D5E4B6
:061D0100F0A37405F022BE
:1019DD00E49001DDF09001DDE0FFFDC39001E5E055
:1019ED009D7480F89001E4E06480984062EF25E0FA
:1019FD002405F582E43402F583E0FEA3E0FFC3EE97
:101A0D00648094804032D3EF9408EE6480948050CB
:101A1D00279001DDE025E02469F582E43402F583A9
:101A2D00E0FEA3E0FFC3EE64809480400BD3EF94FF
:101A3D0002EE64809480400FE4900201F0A3F090D8
:101A4D0001FDF0A304F0229001DDE004F080862278
:101F5600E4F5809001E8E0FEA3E024E1F582740058
:101F66003EF583E0F5A09001E4E0FEA3E024ECF565
:0A1F76008274013EF583E0F580223D
:101306009001EAE0FEA3E024EBF58274003EF5834B
:10131600E025E024B7F582E43401F583E0FEA3E09E
:10132600FF4E605DD28EE4C39FFFE49EFE7401947F
:1013360000FDE49400FCE4FB7A01F9F8121E398FF3
:101346008D9001EAE0FEA3E024EBF58274003EF501
:1013560083E025E024B7F582E43401F583E0FEA3BB
:10136600E0FBE4C39BFFE49EFE74019400FDE4945D
:1013760000FCE4FB7A01F9F8121E39AF038F8B806B
:1013860002C28E9001EAE475F001120C79FE74EB4C
:1013960025F0F58274003EF583E075F0B4A4FFAE47
:1013A600F0122003C28E9001EAE0FEA3E024EBF5E2
:1013B6008274003EF583E075F03CA4FFAEF0122087
:1013C600039001EBE004F070069001EAE004F0906F
:1013D60001E8E0FEA3E0FFD39400EE648094805021
:1013E600089001D7E4F0A304F0C3EF9407EE6480FD
:1013F60094804007E49001D7F0A3F09001D7E07005
:1014060002A3E060109001E9E004F070169001E894
:10141600E004F0800E9001E9E024FFF09001E8E09E
:1014260034FFF09001EAE07004A3E064CC700D9004
:0D14360001EAF0A3F07F887E13122003224C
:101BD0009001DEE07002A3E0706AD28E9000EEE029
:101BE00025E024B7F582E43401F583E0FEA3E0FBB1
:101BF000E4C39BFFE49EFE74019400FDE49400FCAA
:101C0000E4FB7A01F9F8121E398F8D9000EEE02581
:101C1000E024B7F582E43401F583E0FEA3E0FBE4C1
:101C2000C39BFFE49EFE74019400FDE49400FCE479
:101C3000FB7A01F9F8121E39AF038F8B9001DEE4B5
:051C4000F0A304F022F6
:03093C00E4FFFED7
:10093F00E58C75F00384ADF07529008D2AE58A7575
:10094F00F00984ADF0752B008D2CE58C1313540139
:10095F00752D00F52EE49001DDF09001DDE0FDD363
:10096F009001E5E09D7480F89001E4E06480985078
:10097F0003020B9C9001DDE025E02407F582E434AF
:10098F0002F583E0FAA3E0FBED25E02405F582E410
:10099F003402F583E0FCA3E0C39BFDEC9AFCD3ED9E
:1009AF009400EC64809480404C9001E2E07002A3CC
:1009BF00E06003020B629001DDE0FD25E02407F506
:1009CF0082E43402F583E0FAA3E0652C7003EA6554
:1009DF002B6003020B62ED25E0246BF582E43402F9
:1009EF00F583E0FCA3E0652A7003EC652960030240
:1009FF000B62020B9C9001DDE0FD25E02407F582E0
:100A0F00E43402F583E0FAA3E0FBED25E02405F5DD
:100A1F0082E43402F583E0FCA3E0FDC39BEC9AC3B0
:100A2F0064809480503C9001E2E07002A3E0600388
:100A3F00020B62ED652C7003EC652B6003020B62F9
:100A4F009001DDE025E02469F582E43402F583E0CE
:100A5F00FCA3E0652A7003EC65296003020B6202B8
:100A6F000B9C9001DDE0FD25E0246BF582E4340260
:100A7F00F583E0FAA3E0FBED25E02469F582E43489
:100A8F0002F583E0FCA3E0C39BFDEC9AFCD3ED944D
:100A9F0000EC64809480404B9001E2E07004A3E08E
:100AAF0064016003020B629001DDE0FD25E0240785
:100ABF00F582E43402F583E0FAA3E0652C7003EAD3
:100ACF00652B6003020B62ED25E0246BF582E434A5
:100ADF0002F583E0FCA3E0652A7003EC65297073CF
:100AEF00020B9C9001DDE0FD25E0246BF582E434E0
:100AFF0002F583E0FAA3E0FBED25E02469F582E43B
:100B0F003402F583E0FCA3E0C39BEC9AC3648094AA
:100B1F008050409001E2E07004A3E06401703490D3
:100B2F0001DDE0FD25E02405F582E43402F583E0E4
:100B3F00FAA3E0B52C1DEAB52B19ED25E02469F5D4
:100B4F0082E43402F583E0FCA3E0652A7003EC65D0
:100B5F0029603A9001E4A3E0149001DDF060259044
:100B6F0001E2E0FCA3E0FD4C7008E52C6408452B86
:100B7F006012ED64014C7008E52A64024529600497
:100B8F007E007F019001DDE004F0020969EF64014E
:100B9F004E600302093F900000E52BF0A3E52CF017
:100BAF009001E2E0FEA3E0FF4E7006AC2BAD2C806F
:100BBF0009E52C2401FDE4352BFC900002ECF0A399
:100BCF00EDF0A3E529F0A3E52AF0EF64014E7006DE
:100BDF00AE29AF2A8009E52A2401FFE43529FE90CA
:070BEF000006EEF0A3EFF099
:010BF60022DC
:10117F00900000E0FEA3E0FF900205E06E7003A375
:10118F00E06F6003021241900004E0FCA3E0FD90C9
:10119F000269E06C7003A3E06D60030212419001DD
:1011AF00E2E07004A3E064036003021241C3900005
:1011BF0003E09FFF900002E09EFEEF64014E70720D
:1011CF009001E5E004F070069001E4E004F0900176
:1011DF00E4A3E0F9E9D394004047E925E02403F5BF
:1011EF0082E43402F583E0FEA3E0FFE925E0240565
:1011FF00F582E43402F583EEF0A3EFF0E925E02465
:10120F0067F582E43402F583E0FEA3E0FFE925E011
:10121F002469F582E43402F583EEF0A3EFF0198030
:10122F00B3900206E004F07006900205E004F0129D
:10123F00093C900002E0FEA3E0FF900205E06E7013
:10124F0003A3E06F6003021305900004E0FCA3E02A
:10125F00FD900269E06C7003A3E06D60030213055B
:10126F009001E2E07004A3E06402600302130590B2
:10127F000000E0FCA3E0FDC3EF9DFFEE9CFEEF64DA
:10128F00014E70729001E5E004F070069001E4E009
:10129F0004F09001E4A3E0F9E9D394004047E92575
:1012AF00E02403F582E43402F583E0FEA3E0FFE9D6
:1012BF0025E02405F582E43402F583EEF0A3EFF088
:1012CF00E925E02467F582E43402F583E0FEA3E02C
:1012DF00FFE925E02469F582E43402F583EEF0A3FB
:1012EF00EFF01980B3900206E024FFF0900205E0C2
:0612FF0034FFF012093C6F
:0113050022C5
:10161900E4F5809001E6F0A3F0900002E0FEA3E07B
:10162900FF900000E0FCA3E0FDC39FFFEC9E4F701C
:101639002AED4C6026740444007005FE7F20800466
:101649007E007F109001E7E02FF09001E6E03EF088
:1016590074E02DF58274003C0216E8900002E0FE69
:10166900A3E0FF900000E0FCA3E0FDC39FFFEC9E18
:101679004F7021ED4C701D740444007005FE7F20ED
:1016890080047E007F109001E7E02FF09001E6E0F2
:101699003EF0803D900004E0FEA3E0FF4E70109004
:1016A90001E7E004F0702A9001E6E004F08022EFFF
:1016B90064014E70089001E7E02440800CEF640259
:1016C9004E700E9001E7E02408F09001E6E0340046
:1016D900F0900000E0FEA3E024E1F58274003EF5FD
:0E16E90083E0F5A09001E6A3E0F58002002E5C
:10003E00E4F52AE4F58074E1252AF582E43400F52E
:10004E0083E0F5A0E4F529FFEFFDC39001E5E09D07
:10005E007480F89001E4E064809850030205E0EFAC
:10006E0025E02405F582E43402F583E0FCA3E0FDEF
:10007E00E52AFBED6B7001EC600302012CEF25E02D
:10008E002469F582E43402F583E0FCA3E04C6003BE
:10009E0002012CEF14C394004036E52A2401FDE43E
:1000AE0033FCEF25E02403F582E43402F583E0FA15
:1000BE00A3E0B5051BEAB50417EF25E02467F5822A
:1000CE00E43402F583E0FCA3E04C70040529804E75
:1000DE00EF2401FDE433FCC39001E5E09DEC648068
:1000EE00F89001E4E06480984034E52A2401FDE4B0
:1000FE0033FCEF25E02407F582E43402F583E0FAC1
:10010E00A3E0B50519EAB50415EF25E0246BF582D9
:10011E00E43402F583E0FCA3E04C70020529E52AE5
:10012E00640760030201FCE52A2401FDE433FCEFC1
:10013E0025E02405F582E43402F583E0FAA3E06DB0
:10014E007002EA6C60030201FCEF25E02469F5827F
:10015E00E43402F583E0FCA3E04C60030201FCEF03
:10016E0014C394004036E52A2401FDE433FCEF2548
:10017E00E02403F582E43402F583E0FAA3E0B5054A
:10018E001BEAB50417EF25E02467F582E43402F587
:10019E0083E0FCA3E064014C7002804EEF2401FD6D
:1001AE00E433FCC39001E5E09DEC6480F89001E43B
:1001BE00E06480984038E52A2401FDE433FCEF2505
:1001CE00E02407F582E43402F583E0FAA3E0B505F6
:1001DE001DEAB50419EF25E0246BF582E43402F52F
:1001EE0083E0FCA3E064014C700405290529E52A8F
:1001FE00640760030202D0E52A2401FDE433FCEF1C
:10020E0025E02405F582E43402F583E0FAA3E06DDF
:10021E007002EA6C60030202D0EF25E02469F582D9
:10022E00E43402F583E0FCA3E064014C60030202B7
:10023E00D0EF14C394004036E52A2401FDE433FCCC
:10024E00EF25E02403F582E43402F583E0FAA3E01F
:10025E00B5051BEAB50417EF25E02467F582E434F3
:10026E0002F583E0FCA3E064024C7002804EEF24A2
:10027E0001FDE433FCC39001E5E09DEC6480F89051
:10028E0001E4E0648098403AE52A2401FDE433FC61
:10029E00EF25E02407F582E43402F583E0FAA3E0CB
:1002AE00B5051FEAB5041BEF25E0246BF582E43497
:1002BE0002F583E0FCA3E064024C70067404252969
:1002CE00F529E52A2401FDE433FCEF25E02405F5AC
:1002DE0082E43402F583E0FAA3E06D7002EA6C600A
:1002EE0003020399EF25E02469F582E43402F583D5
:1002FE00E0FCA3E064024C6003020399EF14C39484
:10030E00004035EF25E02403F582E43402F583E066
:10031E00FCA3E0FDE52AFB7A00EDB5031BEAB5046C
:10032E0017EF25E02467F582E43402F583E0FCA3A1
:10033E00E064024C7002804DEF2401FDE433FCC3F7
:10034E009001E5E09DEC6480F89001E4E064809813
:10035E004039EF25E02407F582E43402F583E0FC12
:10036E00A3E0FDE52AFB7A00EDB5031FEAB5041BF9
:10037E00EF25E0246BF582E43402F583E0FCA3E084
:10038E0064024C700674082529F529EF25E0240532
:10039E00F582E43402F583E0FCA3E0FDE52AFB7A66
:1003AE0000ED6B7001EC6003020459EF25E0246947
:1003BE00F582E43402F583E0FCA3E064024C6003B2
:1003CE00020459EF14C39400402EEF25E02403F5E8
:1003DE0082E43402F583E0FCA3E0B5031BEAB50426
:1003EE0017EF25E02467F582E43402F583E0FCA3E1
:1003FE00E064014C7002804DEF2401FDE433FCC338
:10040E009001E5E09DEC6480F89001E4E064809852
:10041E004039EF25E02407F582E43402F583E0FC51
:10042E00A3E0FDE52AFB7A00EDB5031FEAB5041B38
:10043E00EF25E0246BF582E43402F583E0FCA3E0C3
:10044E0064014C700674102529F529EF25E024056A
:10045E00F582E43402F583E0FCA3E0FDE52AFB7AA5
:10046E0000ED6B7001EC6003020515EF25E02469C9
:10047E00F582E43402F583E0FCA3E064014C6003F2
:10048E00020515EF14C39400402CEF25E02403F56C
:10049E0082E43402F583E0FCA3E0B50319EAB50467
:1004AE0015EF25E02467F582E43402F583E0FCA322
:1004BE00E04C7002804BEF2401FDE433FCC390014D
:1004CE00E5E09DEC6480F89001E4E06480984037AC
:1004DE00EF25E02407F582E43402F583E0FCA3E087
:1004EE00FDE52AFB7A00EDB5031DEAB50419EF25EB
:1004FE00E0246BF582E43402F583E0FCA3E04C705B
:10050E000674202529F529EF25E02405F582E4342B
:10051E0002F583E0FCA3E0FDE52AFBED6B7001EC38
:10052E0060030205DCEF25E02469F582E43402F570
:10053E0083E0FCA3E064014C60030205DCEF14C30E
:10054E0094004036E52A2401FDE433FCEF25E02437
:10055E0003F582E43402F583E0FAA3E0B5051BEA65
:10056E00B50417EF25E02467F582E43402F583E045
:10057E00FCA3E064014C7002804EEF2401FDE433D5
:10058E00FCC39001E5E09DEC6480F89001E4E0642A
:10059E008098403AE52A2401FDE433FCEF25E0245F
:1005AE0007F582E43402F583E0FAA3E0B5051FEA0D
:1005BE00B5041BEF25E0246BF582E43402F583E0ED
:1005CE00FCA3E064014C700674402529F5290F0246
:1005DE00005685298012002E052AE52AC39408505C
:0405EE0003020041C3
:0105F20022E6
:04200300EF4E601329
:1020070075290B752ABED52AFDD529FAEF1F70EC65
:012017001EAA
:0320180080E9223A
:08002E007F027E0FDEFEDFFC05
:0100360022A7
:092083008B88898C88898F88897B
:100F2F005203478686008686008686008686008660
:090F3F00860086860041033C098E
:03002B000220B4FC
:0620B40053BCEFD20F3215
:020FD300153CCB
:100FD500200F0302117CC20F90033BE0B4090040CF
:100FE5000302115E900FF0F82828730210370210E3
:100FF5000B02101D02104902100B02101D02106099
:1010050002100B02101DAFBDEFFEADBE7C00E42D3E
:10101500FFEC3E90033D803CAFBDEFFEADBE7C00D6
:10102500E42DFFEC3E90033FF0A3EFF0751E0102A7
:101035001164AFBDEFFEADBE7C00E42DFFEC3E902C
:1010450003418010AFBDEFFEADBE7C00E42DFFEC8B
:101055003E900343F0A3EFF0021164AFBDEFFEAD88
:10106500BE7C00E42DFFEC3E900345F0A3EFF0902D
:101075000345E0FEA3E07807CEC313CE13D8F9A845
:101085003CF6C394065013A83CE675F003A4244728
:10109500F582E43403F583E014F090033CE014F0AA
:1010A50060030211647409F0A83CE4F6A83CE6FF6D
:1010B500C394064003021164EF75F003A42447F5B9
:1010C50082E43403F583E0C39480502AE6FF75F08B
:1010D50003A42448F582E43403F583E0D3948040E7
:1010E50040EF75F003A42449F582E43403F58374D5
:1010F50001F0F51F802BA83CE6FF75F003A42448FA
:10110500F582E43403F583E0C394805014EF75F061
:1011150003A42449F582E43403F5837402F0751FB2
:1011250001A83CE6FF75F003A42447F582E43403E7
:10113500F583E0FEEF75F003A42448F582E434035B
:10114500F583EEF0E675F003A42447F582E4340355
:10115500F5837486F0060210B190033B74FFF0909E
:10116500033BE0D39407400374FFF090033BE00496
:07117500F090208393F5BC0C
:03117C00053C220D
:02206700153C26
:09206900A83CA61FE4F51FE6FFE8
:03207200053C2208
:02207500153C18
:09207700A83CA61EE4F51EE6FFDC
:03208000053C22FA
:101EFA008F9D75BC88439720D2AD90031274FFF072
:101F0A00A3740FF0A374D3F0A374FFF0A37420F0AA
:101F1A00A37467F0A374FFF0A37420F0A37475F0A0
:011F2A002294
:070003007B017A03793D2225
:101DF300C3EF64809480403BD3EF64809485503379
:101E0300EFFD3395E0FC90034975F003ED120DDC13
:101E1300EC75F003A42583F583E0FE90034975F088
:101E230003ED120DDCEC75F003A42583F583E4F0D8
:051E3300AF06227F0351
:011E38002287
:041F8000153C153CBB
:101F8400122095A83CA60608A607A83CE6FE08E68B
:0F1F9400FF4E600BEF24FFFFEE34FFFE12209E86
:051FA300053C053C2295
:101FA80053B1EF43B2101220D1E4F5D975DA49D212
:101FB800DE90030C74FFF0A3741FF0A37480F0226A
:081B58008E1A8F1B8C1C8D1DE1
:101B6000122095EF4E7066AF1DAE1C12209EC3E58D
:101B70001B940AE51A9400404BE47B18FAF9F8909C
:101B80000000120DC0120D1AC006C007AE1AAF1B1E
:101B9000AB07AA06E4F9F8D007D006120D1AAB0776
:101BA000AA06AFF9EFFEADE97C00E42DFFEC3ECFD5
:101BB0002BCF3AAD07FCAF03AE02122056D2D8436A
:0F1BC000DA0180061220D153DAFE7F02227F0362
:011BCF0022F3
:0C001E00122095EF4E7002FF227F01229D
:10153000E4F580900364E0FFB40800505F90154428
:10154000F828287302155C02156202156802156EF0
:1015500002157402157E021588021592C2A3C2A25A
:101560008016C2A3C2A2801AC2A3C2A2801EC2A3B6
:10157000C2A28022C2A3D2A2C2A1C2A08020C2A3C2
:10158000D2A2C2A1D2A08016C2A3D2A2D2A1C2A0CE
:10159000800CC2A3D2A2D2A1D2A08002D2A3C3EF58
:1015A000648094885029900364E0FF3395E0FE74D2
:1015B0005B2FF58274033EF583E0FF3395E0FE7404
:1015C000002FF58274003EF583E493F580801E9031
:1015D0000364E0FFB408133395E0FE745B2FF582DB
:1015E00074033EF583E0F5808003E4F58090035AB0
:1015F000E0FF900364E004FEF0D3EF6480F8EE6453
:1016000080984014E0D36480948850047408F022D9
:09161000900359E0900364F022FC
:101FE800E4F5937594FF5395F043960F9002F774B8
:0B1FF800FFF0A37415F0A37430F0227A
:09208C00900359EFF0A3EDF022DE
:101FC80090035BEFF0A3EDF0A3EBF0A3E532F0A3F1
:101FD800E533F0A3E534F0A3E535F0A3E536F022C8
:0620BA00900363EFF02229
:100F48004102CD0A4102F60A41033A0A040E0000A2
:100F580000000114004603340000FFFF8FFFC10D9D
:100F6800C105C108C101C10E602402D2FF000AFFF9
:100F7800000AFF000AFF000AFF000AFF000AFF003C
:100F88000AFF000AFF000AFF000AFF000AFF000A22
:100F9800603602F7FF000AFF000AFF20CEFF000AB2
:100FA800FF20CEFF000AFF20CEFF000AFF000AFF45
:100FB800000AFF20CEFF20CEFF20CEFF20CEFF006C
:0A0FC8000AFF000AFF000AFF000AFA
:01000A0022D3
:0320CE007F00226E
:101DAC00438E805389F07BE07A287901780090008B
:101DBC0000120DC0121E39EFF404F58A7BE07A286C
:101DCC0079017800900000120DC0121E39C3E49FF7
:101DDC00FFE49EFE74019DFDE49CFC7808120DACA2
:071DEC008F8CD28CD2A922DA
:03000B00021D5A79
:041D5A00C0E0C0D055
:101D5E00D5080A75084C300D020514D20DA2037277
:101D6E00045036150AE50A7030850C0AD207300A7F
:101D7E0017E50D6007150D438F01801D538FFEC2B1
:101D8E00B5D51615C20A8011050BE50BD394064086
:091D9E0008C203E5136002D2063D
:051DA700D0D0D0E032B5
:101D0700300E47C20E900000120DC07810120DACB5
:101D17008E3A8F3B9002D0E0FEA3E0FFE4FCFD7B10
:101D270019FAF9F8120C8FC006C007AE3AAF3BABF1
:101D370007AA06E4F9F8D007D006121E397803126D
:101D47000DAC900332EEF0A3EFF0900332E0FEA368
:021D5700E0FFAB
:011D59002267
:09209500900334E0FEA3E0FF22F9
:09209E00900334EEF0A3EFF022F0
:10205600900338EEF0A3EFF0900336ECF0A3EDF02A
:012066002257
:0320D100C2B42274
:03003B000216F7B3
:1016F700C0E0C083C082C0D075D000C004C005C0A0
:0317070006C00712
:10170A0030DF04C2DF807D30DA04C2DA807630D975
:10171A003DC2D9AFFBEFFEADEB7C00E42DFFEC3E02
:10172A0020000E9002CEF0A3EFF075DB11D20080FC
:10173A0053FE9002CEE0FCA3E0FDC3EF9DFFEE9CBA
:10174A00A3F0A3EFF075DB00C200D20E803630D8CA
:10175A0033C2D8900334E07002A3E06022B2B4909E
:10176A000336E0FEA3E0F5EAEEF5FAA3E0FEA3E015
:10177A00FF900337E02FF0900336E03EF08005C279
:04178A00B453DAFE7C
:10178E00D007D006D005D004D0D0D082D083D0E000
:01179E003218
:0620C000121DACD2AF229C
:101952003004047F0180027F00200A047E0180029D
:101962007E00EE5F6074E515C3950950683002365B
:10197200750D01E515131313541FAB17AA18A919F6
:10198200F582758300120BF7FFE515540704FEEF8D
:10199200A806088002C333D8FC30D7057516038029
:1019A2002F751601802AAB17AA18A91975F002E53E
:1019B20015A4F58285F083120BF7F50DE51575F088
:1019C20002A429F9EA35F0FA900001120BF7F51694
:0A19D2000515D20A22C204438F104B
:0119DC0022E8
:101443009002CDE014F0701F740AF0D2059002F6FA
:10145300E014F07012740AF0D20890033AE014F02A
:101463007005740AF0D2019002F7A3E0FAA3E0F941
:10147300120DE89002FAA3E0FAA3E0F9120DE89046
:101483000306A3E0FAA3E0F9120DE8900312A3E028
:10149300FAA3E0F9120DE8900321A3E0FAA3E0F91F
:1014A300120DE890032AA3E0FAA3E0F9120DE890E5
:1014B3000318A3E0FAA3E0F9120DE8EF600C900221
:1014C300EAA3E0FAA3E0F9120DE890031BA3E0FA04
:1014D300A3E0F9120DE8EF600E9002EDA3E0FAA38A
:1014E300E0F9120DE8D20BE512D394004016D512A1
:1014F3003030090C9002F0A3E0FAA3E0F9120DE8F2
:10150300D20C801D90031EA3E0FAA3E0F9120DE8AC
:10151300EF600E9002F0A3E0FAA3E0F9120DE8D217
:0D1523000C9002D2A3E0FAA3E0F9020DE85B
:1018330090030CA3E0FAA3E0F9120DE890030FA3C1
:10184300E0FAA3E0F9120DE8900300A3E0FAA3E0A5
:10185300F9120DE89002D5A3E0FAA3E0F9120DE81E
:101863009002FDA3E0FAA3E0F9120DE8EF600C90FB
:1018730002DEA3E0FAA3E0F9120DE8900303A3E06C
:10188300FAA3E0F9120DE8EF600C9002E4A3E0FA8A
:10189300A3E0F9120DE8900315A3E0FAA3E0F9120F
:1018A3000DE8EF600C9002E7A3E0FAA3E0F9120D54
:1018B300E830060EC2069002F3A3E0FAA3E0F912A1
:0318C3000DE8220B
:101E7D009002D8A3E0FAA3E0F9120DE8900309A3AC
:101E8D00E0FAA3E0F9120DE8EF600C9002E1A3E097
:101E9D00FAA3E0F9120DE8900324A3E0FAA3E0F908
:0F1EAD00120DE8900327A3E0FAA3E0F9020DE875
:101F2B00AF11AE10AD0FAC0E90032D120DD0900370
:101F3B0031E514F0E4F511F510F50FF50EF51490ED
:0B1F4B0002DBA3E0FAA3E0F9020DE8BE
:101EBC00300705C207121952300D05C20D1214431A
:101ECC00300505C205121833300805C208121E7DF4
:101EDC00300105C201121F2BE5112401F511E43567
:0E1EEC0010F510E4350FF50FE4350EF50E225B
:101ADB008B378A388939EFB40C005070901AEEF8B6
:101AEB00282873021B12021B17021B1C021B21024C
:101AFB001B26021B2B021B30021B35021B3A021B3F
:101B0B003F021B44021B499002D280359002D580C4
:101B1B00309002D8802B9002DB80269002DE802151
:101B2B009002E4801C9002E180179002E7801290F3
:101B3B0002EA800D9002ED80089002F08003900283
:0D1B4B00F3E537F0A3E538F0A3E539F0220B
:0720A7007B017A03792D2271
:030000000218C61D
:0C18C600787FE4F6D8FD75813C02190D16
:100BF700BB010CE58229F582E5833AF583E02250B3
:100C070006E92582F8E622BBFE06E92582F8E222FC
:0D0C1700E58229F582E5833AF583E4932216
:100C2400BC000BBE0029EF8DF084FFADF022E4CCB4
:100C3400F875F008EF2FFFEE33FEEC33FCEE9DEC7D
:100C4400984005FCEE9DFE0FD5F0E9E4CEFD22EDC3
:100C5400F8F5F0EE8420D21CFEADF075F008EF2F0D
:100C6400FFED33FD4007985006D5F0F222C398FDFE
:050C74000FD5F0EA229B
:100C7900C5F0F8A3E028F0C5F0F8E5821582700206
:060C89001583E038F022A3
:100C8F00E88FF0A4CC8BF0A42CFCE98EF0A42CFC04
:100C9F008AF0EDA42CFCEA8EF0A4CDA8F08BF0A482
:100CAF002DCC3825F0FDE98FF0A42CCD35F0FCEBE1
:100CBF008EF0A4FEA9F0EB8FF0A4CFC5F02ECD39A6
:0F0CCF00FEE43CFCEAA42DCE35F0FDE43CFC2213
:100CDE0075F008758200EF2FFFEE33FECD33CDCCCD
:100CEE0033CCC58233C5829BED9AEC99E582984050
:100CFE000CF582EE9BFEED9AFDEC99FC0FD5F0D62D
:100D0E00E4CEFBE4CDFAE4CCF9A88222B800C1B956
:100D1E000059BA002DEC8BF084CFCECDFCE5F0CB94
:100D2E00F97818EF2FFFEE33FEED33FDEC33FCEBCD
:100D3E0033FB10D703994004EB99FB0FD8E5E4F988
:100D4E00FA227818EF2FFFEE33FEED33FDEC33FC75
:100D5E00C933C910D7059BE99A4007EC9BFCE99A69
:100D6E00F90FD8E0E4C9FAE4CCFB2275F010EF2FAE
:100D7E00FFEE33FEED33FDCC33CCC833C810D707AE
:100D8E009BEC9AE899400AED9BFDEC9AFCE899F8E9
:0E0D9E000FD5F0DAE4CDFBE4CCFAE4C8F9227C
:101E3900C2D5E830E70FB2D5E4C39BFBE49AFAE4D4
:101E490099F9E498F8EC30E717B2D5121E6F120D24
:101E59001AE4C39BFBE49AFAE499F9E498F880033D
:101E6900120D1A30D50DE4C39FFFE49EFEE49DFDDB
:041E7900E49CFC22C7
:100DAC00E86010ECA2E713FCED13FDEE13FEEF135D
:040DBC00FFD8F0224A
:100DC000E493FC740193FD740293FE740393FF2279
:0C0DD000ECF0A3EDF0A3EEF0A3EFF02296
:0C0DDC00A42582F582E5F03583F5832222
:060DE8008A838982E47396
:1018D2000220AEE493A3F8E493A34003F68001F25E
:1018E20008DFF48029E493A3F85407240CC8C33317
:1018F200C4540F4420C8834004F456800146F6DFE6
:10190200E4800B0102040810204080900DEEE47E7A
:10191200019360BCA3FF543F30E509541FFEE493DA
:10192200A360010ECF54C025E060A840B8E493A3A1
:10193200FAE493A3F8E493A3C8C582C8CAC583CACC
:10194200F0A3C8C582C8CAC583CADFE9DEE780BE84
:010FD200001E
:00000001FF
